{
  "address": "0x77AD263Cd578045105FBFC88A477CAd808d39Cf6",
  "abi": [
    {
      "inputs": [
        {
          "internalType": "string",
          "name": "_name",
          "type": "string"
        },
        {
          "internalType": "string",
          "name": "_symbol",
          "type": "string"
        }
      ],
      "stateMutability": "nonpayable",
      "type": "constructor"
    },
    {
      "inputs": [],
      "name": "TREASURY_EXHAUSTED",
      "type": "error"
    },
    {
      "anonymous": false,
      "inputs": [
        {
          "indexed": true,
          "internalType": "address",
          "name": "owner",
          "type": "address"
        },
        {
          "indexed": true,
          "internalType": "address",
          "name": "spender",
          "type": "address"
        },
        {
          "indexed": false,
          "internalType": "uint256",
          "name": "value",
          "type": "uint256"
        }
      ],
      "name": "Approval",
      "type": "event"
    },
    {
      "anonymous": false,
      "inputs": [
        {
          "indexed": true,
          "internalType": "address",
          "name": "previousOwner",
          "type": "address"
        },
        {
          "indexed": true,
          "internalType": "address",
          "name": "newOwner",
          "type": "address"
        }
      ],
      "name": "OwnershipTransferred",
      "type": "event"
    },
    {
      "anonymous": false,
      "inputs": [
        {
          "indexed": true,
          "internalType": "address",
          "name": "from",
          "type": "address"
        },
        {
          "indexed": true,
          "internalType": "address",
          "name": "to",
          "type": "address"
        },
        {
          "indexed": false,
          "internalType": "uint256",
          "name": "value",
          "type": "uint256"
        }
      ],
      "name": "Transfer",
      "type": "event"
    },
    {
      "inputs": [
        {
          "internalType": "address",
          "name": "owner",
          "type": "address"
        },
        {
          "internalType": "address",
          "name": "spender",
          "type": "address"
        }
      ],
      "name": "allowance",
      "outputs": [
        {
          "internalType": "uint256",
          "name": "",
          "type": "uint256"
        }
      ],
      "stateMutability": "view",
      "type": "function"
    },
    {
      "inputs": [
        {
          "internalType": "address",
          "name": "spender",
          "type": "address"
        },
        {
          "internalType": "uint256",
          "name": "amount",
          "type": "uint256"
        }
      ],
      "name": "approve",
      "outputs": [
        {
          "internalType": "bool",
          "name": "",
          "type": "bool"
        }
      ],
      "stateMutability": "nonpayable",
      "type": "function"
    },
    {
      "inputs": [
        {
          "internalType": "address",
          "name": "account",
          "type": "address"
        }
      ],
      "name": "balanceOf",
      "outputs": [
        {
          "internalType": "uint256",
          "name": "",
          "type": "uint256"
        }
      ],
      "stateMutability": "view",
      "type": "function"
    },
    {
      "inputs": [
        {
          "internalType": "uint256",
          "name": "amount",
          "type": "uint256"
        },
        {
          "internalType": "address",
          "name": "_user",
          "type": "address"
        }
      ],
      "name": "burn",
      "outputs": [],
      "stateMutability": "nonpayable",
      "type": "function"
    },
    {
      "inputs": [
        {
          "internalType": "address",
          "name": "_newOwner",
          "type": "address"
        }
      ],
      "name": "changeOwner",
      "outputs": [],
      "stateMutability": "nonpayable",
      "type": "function"
    },
    {
      "inputs": [],
      "name": "decimals",
      "outputs": [
        {
          "internalType": "uint8",
          "name": "",
          "type": "uint8"
        }
      ],
      "stateMutability": "view",
      "type": "function"
    },
    {
      "inputs": [
        {
          "internalType": "address",
          "name": "spender",
          "type": "address"
        },
        {
          "internalType": "uint256",
          "name": "subtractedValue",
          "type": "uint256"
        }
      ],
      "name": "decreaseAllowance",
      "outputs": [
        {
          "internalType": "bool",
          "name": "",
          "type": "bool"
        }
      ],
      "stateMutability": "nonpayable",
      "type": "function"
    },
    {
      "inputs": [],
      "name": "getSupply",
      "outputs": [
        {
          "internalType": "uint256",
          "name": "",
          "type": "uint256"
        }
      ],
      "stateMutability": "view",
      "type": "function"
    },
    {
      "inputs": [
        {
          "internalType": "address",
          "name": "spender",
          "type": "address"
        },
        {
          "internalType": "uint256",
          "name": "addedValue",
          "type": "uint256"
        }
      ],
      "name": "increaseAllowance",
      "outputs": [
        {
          "internalType": "bool",
          "name": "",
          "type": "bool"
        }
      ],
      "stateMutability": "nonpayable",
      "type": "function"
    },
    {
      "inputs": [
        {
          "internalType": "uint256",
          "name": "_amount",
          "type": "uint256"
        },
        {
          "internalType": "address",
          "name": "_user",
          "type": "address"
        }
      ],
      "name": "mint",
      "outputs": [
        {
          "internalType": "bool",
          "name": "",
          "type": "bool"
        }
      ],
      "stateMutability": "nonpayable",
      "type": "function"
    },
    {
      "inputs": [],
      "name": "name",
      "outputs": [
        {
          "internalType": "string",
          "name": "",
          "type": "string"
        }
      ],
      "stateMutability": "view",
      "type": "function"
    },
    {
      "inputs": [],
      "name": "owner",
      "outputs": [
        {
          "internalType": "address",
          "name": "",
          "type": "address"
        }
      ],
      "stateMutability": "view",
      "type": "function"
    },
    {
      "inputs": [],
      "name": "renounceOwnership",
      "outputs": [],
      "stateMutability": "nonpayable",
      "type": "function"
    },
    {
      "inputs": [],
      "name": "symbol",
      "outputs": [
        {
          "internalType": "string",
          "name": "",
          "type": "string"
        }
      ],
      "stateMutability": "view",
      "type": "function"
    },
    {
      "inputs": [],
      "name": "totalSupply",
      "outputs": [
        {
          "internalType": "uint256",
          "name": "",
          "type": "uint256"
        }
      ],
      "stateMutability": "view",
      "type": "function"
    },
    {
      "inputs": [
        {
          "internalType": "address",
          "name": "to",
          "type": "address"
        },
        {
          "internalType": "uint256",
          "name": "amount",
          "type": "uint256"
        }
      ],
      "name": "transfer",
      "outputs": [
        {
          "internalType": "bool",
          "name": "",
          "type": "bool"
        }
      ],
      "stateMutability": "nonpayable",
      "type": "function"
    },
    {
      "inputs": [
        {
          "internalType": "address",
          "name": "from",
          "type": "address"
        },
        {
          "internalType": "address",
          "name": "to",
          "type": "address"
        },
        {
          "internalType": "uint256",
          "name": "amount",
          "type": "uint256"
        }
      ],
      "name": "transferFrom",
      "outputs": [
        {
          "internalType": "bool",
          "name": "",
          "type": "bool"
        }
      ],
      "stateMutability": "nonpayable",
      "type": "function"
    },
    {
      "inputs": [
        {
          "internalType": "address",
          "name": "newOwner",
          "type": "address"
        }
      ],
      "name": "transferOwnership",
      "outputs": [],
      "stateMutability": "nonpayable",
      "type": "function"
    },
    {
      "inputs": [
        {
          "internalType": "uint256",
          "name": "_newSupply",
          "type": "uint256"
        }
      ],
      "name": "updateSupply",
      "outputs": [],
      "stateMutability": "nonpayable",
      "type": "function"
    }
  ],
  "transactionHash": "0xd8c6fdd16ac7bbb54017afa2e63922820aadff36592446c560284bb6f9e5edd2",
  "args": [
    "KK",
    "KK"
  ],
  "numDeployments": 1,
  "solcInputHash": "5578681f87638cc4de6ab4039230f419",
  "bytecode": "0x60806040526a52b7d2dcc80cd2e40000006006553480156200002057600080fd5b5060405162002354380380620023548339818101604052810190620000469190620002f7565b81818160039081620000599190620005c7565b5080600490816200006b9190620005c7565b5050506200008e620000826200009660201b60201c565b6200009e60201b60201c565b5050620006ae565b600033905090565b6000600560009054906101000a900473ffffffffffffffffffffffffffffffffffffffff16905081600560006101000a81548173ffffffffffffffffffffffffffffffffffffffff021916908373ffffffffffffffffffffffffffffffffffffffff1602179055508173ffffffffffffffffffffffffffffffffffffffff168173ffffffffffffffffffffffffffffffffffffffff167f8be0079c531659141344cd1fd0a4f28419497f9722a3daafe3b4186f6b6457e060405160405180910390a35050565b6000604051905090565b600080fd5b600080fd5b600080fd5b600080fd5b6000601f19601f8301169050919050565b7f4e487b7100000000000000000000000000000000000000000000000000000000600052604160045260246000fd5b620001cd8262000182565b810181811067ffffffffffffffff82111715620001ef57620001ee62000193565b5b80604052505050565b60006200020462000164565b9050620002128282620001c2565b919050565b600067ffffffffffffffff82111562000235576200023462000193565b5b620002408262000182565b9050602081019050919050565b60005b838110156200026d57808201518184015260208101905062000250565b60008484015250505050565b6000620002906200028a8462000217565b620001f8565b905082815260208101848484011115620002af57620002ae6200017d565b5b620002bc8482856200024d565b509392505050565b600082601f830112620002dc57620002db62000178565b5b8151620002ee84826020860162000279565b91505092915050565b600080604083850312156200031157620003106200016e565b5b600083015167ffffffffffffffff81111562000332576200033162000173565b5b6200034085828601620002c4565b925050602083015167ffffffffffffffff81111562000364576200036362000173565b5b6200037285828601620002c4565b9150509250929050565b600081519050919050565b7f4e487b7100000000000000000000000000000000000000000000000000000000600052602260045260246000fd5b60006002820490506001821680620003cf57607f821691505b602082108103620003e557620003e462000387565b5b50919050565b60008190508160005260206000209050919050565b60006020601f8301049050919050565b600082821b905092915050565b6000600883026200044f7fffffffffffffffffffffffffffffffffffffffffffffffffffffffffffffffff8262000410565b6200045b868362000410565b95508019841693508086168417925050509392505050565b6000819050919050565b6000819050919050565b6000620004a8620004a26200049c8462000473565b6200047d565b62000473565b9050919050565b6000819050919050565b620004c48362000487565b620004dc620004d382620004af565b8484546200041d565b825550505050565b600090565b620004f3620004e4565b62000500818484620004b9565b505050565b5b8181101562000528576200051c600082620004e9565b60018101905062000506565b5050565b601f82111562000577576200054181620003eb565b6200054c8462000400565b810160208510156200055c578190505b620005746200056b8562000400565b83018262000505565b50505b505050565b600082821c905092915050565b60006200059c600019846008026200057c565b1980831691505092915050565b6000620005b7838362000589565b9150826002028217905092915050565b620005d2826200037c565b67ffffffffffffffff811115620005ee57620005ed62000193565b5b620005fa8254620003b6565b620006078282856200052c565b600060209050601f8311600181146200063f57600084156200062a578287015190505b620006368582620005a9565b865550620006a6565b601f1984166200064f86620003eb565b60005b82811015620006795784890151825560018201915060208501945060208101905062000652565b8683101562000699578489015162000695601f89168262000589565b8355505b6001600288020188555050505b505050505050565b611c9680620006be6000396000f3fe608060405234801561001057600080fd5b50600436106101215760003560e01c8063715018a6116100ad578063a6f9dae111610071578063a6f9dae114610320578063a9059cbb1461033c578063dd62ed3e1461036c578063f2fde38b1461039c578063fcd3533c146103b857610121565b8063715018a61461027a5780638da5cb5b1461028457806394bf804d146102a257806395d89b41146102d2578063a457c2d7146102f057610121565b8063313ce567116100f4578063313ce567146101c257806339509351146101e05780636bd08049146102105780636c9c2faf1461022c57806370a082311461024a57610121565b806306fdde0314610126578063095ea7b31461014457806318160ddd1461017457806323b872dd14610192575b600080fd5b61012e6103d4565b60405161013b919061124e565b60405180910390f35b61015e60048036038101906101599190611309565b610466565b60405161016b9190611364565b60405180910390f35b61017c610489565b604051610189919061138e565b60405180910390f35b6101ac60048036038101906101a791906113a9565b610493565b6040516101b99190611364565b60405180910390f35b6101ca6104c2565b6040516101d79190611418565b60405180910390f35b6101fa60048036038101906101f59190611309565b6104cb565b6040516102079190611364565b60405180910390f35b61022a60048036038101906102259190611433565b610502565b005b610234610514565b604051610241919061138e565b60405180910390f35b610264600480360381019061025f9190611460565b610526565b604051610271919061138e565b60405180910390f35b61028261056e565b005b61028c610582565b604051610299919061149c565b60405180910390f35b6102bc60048036038101906102b791906114b7565b6105ac565b6040516102c99190611364565b60405180910390f35b6102da61061a565b6040516102e7919061124e565b60405180910390f35b61030a60048036038101906103059190611309565b6106ac565b6040516103179190611364565b60405180910390f35b61033a60048036038101906103359190611460565b610723565b005b61035660048036038101906103519190611309565b610737565b6040516103639190611364565b60405180910390f35b610386600480360381019061038191906114f7565b61075a565b604051610393919061138e565b60405180910390f35b6103b660048036038101906103b19190611460565b6107e1565b005b6103d260048036038101906103cd91906114b7565b610864565b005b6060600380546103e390611566565b80601f016020809104026020016040519081016040528092919081815260200182805461040f90611566565b801561045c5780601f106104315761010080835404028352916020019161045c565b820191906000526020600020905b81548152906001019060200180831161043f57829003601f168201915b5050505050905090565b60008061047161087a565b905061047e818585610882565b600191505092915050565b6000600254905090565b60008061049e61087a565b90506104ab858285610a4b565b6104b6858585610ad7565b60019150509392505050565b60006012905090565b6000806104d661087a565b90506104f78185856104e8858961075a565b6104f291906115c6565b610882565b600191505092915050565b61050a610d4d565b8060068190555050565b600061051e610d4d565b600654905090565b60008060008373ffffffffffffffffffffffffffffffffffffffff1673ffffffffffffffffffffffffffffffffffffffff168152602001908152602001600020549050919050565b610576610d4d565b6105806000610dcb565b565b6000600560009054906101000a900473ffffffffffffffffffffffffffffffffffffffff16905090565b600082600654816105bb610489565b6105c591906115c6565b11156105fd576040517fc688270000000000000000000000000000000000000000000000000000000000815260040160405180910390fd5b610605610d4d565b61060f8385610e91565b600191505092915050565b60606004805461062990611566565b80601f016020809104026020016040519081016040528092919081815260200182805461065590611566565b80156106a25780601f10610677576101008083540402835291602001916106a2565b820191906000526020600020905b81548152906001019060200180831161068557829003601f168201915b5050505050905090565b6000806106b761087a565b905060006106c5828661075a565b90508381101561070a576040517f08c379a00000000000000000000000000000000000000000000000000000000081526004016107019061166c565b60405180910390fd5b6107178286868403610882565b60019250505092915050565b61072b610d4d565b610734816107e1565b50565b60008061074261087a565b905061074f818585610ad7565b600191505092915050565b6000600160008473ffffffffffffffffffffffffffffffffffffffff1673ffffffffffffffffffffffffffffffffffffffff16815260200190815260200160002060008373ffffffffffffffffffffffffffffffffffffffff1673ffffffffffffffffffffffffffffffffffffffff16815260200190815260200160002054905092915050565b6107e9610d4d565b600073ffffffffffffffffffffffffffffffffffffffff168173ffffffffffffffffffffffffffffffffffffffff1603610858576040517f08c379a000000000000000000000000000000000000000000000000000000000815260040161084f906116fe565b60405180910390fd5b61086181610dcb565b50565b61086c610d4d565b6108768183610fe7565b5050565b600033905090565b600073ffffffffffffffffffffffffffffffffffffffff168373ffffffffffffffffffffffffffffffffffffffff16036108f1576040517f08c379a00000000000000000000000000000000000000000000000000000000081526004016108e890611790565b60405180910390fd5b600073ffffffffffffffffffffffffffffffffffffffff168273ffffffffffffffffffffffffffffffffffffffff1603610960576040517f08c379a000000000000000000000000000000000000000000000000000000000815260040161095790611822565b60405180910390fd5b80600160008573ffffffffffffffffffffffffffffffffffffffff1673ffffffffffffffffffffffffffffffffffffffff16815260200190815260200160002060008473ffffffffffffffffffffffffffffffffffffffff1673ffffffffffffffffffffffffffffffffffffffff168152602001908152602001600020819055508173ffffffffffffffffffffffffffffffffffffffff168373ffffffffffffffffffffffffffffffffffffffff167f8c5be1e5ebec7d5bd14f71427d1e84f3dd0314c0f7b2291e5b200ac8c7c3b92583604051610a3e919061138e565b60405180910390a3505050565b6000610a57848461075a565b90507fffffffffffffffffffffffffffffffffffffffffffffffffffffffffffffffff8114610ad15781811015610ac3576040517f08c379a0000000000000000000000000000000000000000000000000000000008152600401610aba9061188e565b60405180910390fd5b610ad08484848403610882565b5b50505050565b600073ffffffffffffffffffffffffffffffffffffffff168373ffffffffffffffffffffffffffffffffffffffff1603610b46576040517f08c379a0000000000000000000000000000000000000000000000000000000008152600401610b3d90611920565b60405180910390fd5b600073ffffffffffffffffffffffffffffffffffffffff168273ffffffffffffffffffffffffffffffffffffffff1603610bb5576040517f08c379a0000000000000000000000000000000000000000000000000000000008152600401610bac906119b2565b60405180910390fd5b610bc08383836111b4565b60008060008573ffffffffffffffffffffffffffffffffffffffff1673ffffffffffffffffffffffffffffffffffffffff16815260200190815260200160002054905081811015610c46576040517f08c379a0000000000000000000000000000000000000000000000000000000008152600401610c3d90611a44565b60405180910390fd5b8181036000808673ffffffffffffffffffffffffffffffffffffffff1673ffffffffffffffffffffffffffffffffffffffff16815260200190815260200160002081905550816000808573ffffffffffffffffffffffffffffffffffffffff1673ffffffffffffffffffffffffffffffffffffffff168152602001908152602001600020600082825401925050819055508273ffffffffffffffffffffffffffffffffffffffff168473ffffffffffffffffffffffffffffffffffffffff167fddf252ad1be2c89b69c2b068fc378daa952ba7f163c4a11628f55a4df523b3ef84604051610d34919061138e565b60405180910390a3610d478484846111b9565b50505050565b610d5561087a565b73ffffffffffffffffffffffffffffffffffffffff16610d73610582565b73ffffffffffffffffffffffffffffffffffffffff1614610dc9576040517f08c379a0000000000000000000000000000000000000000000000000000000008152600401610dc090611ab0565b60405180910390fd5b565b6000600560009054906101000a900473ffffffffffffffffffffffffffffffffffffffff16905081600560006101000a81548173ffffffffffffffffffffffffffffffffffffffff021916908373ffffffffffffffffffffffffffffffffffffffff1602179055508173ffffffffffffffffffffffffffffffffffffffff168173ffffffffffffffffffffffffffffffffffffffff167f8be0079c531659141344cd1fd0a4f28419497f9722a3daafe3b4186f6b6457e060405160405180910390a35050565b600073ffffffffffffffffffffffffffffffffffffffff168273ffffffffffffffffffffffffffffffffffffffff1603610f00576040517f08c379a0000000000000000000000000000000000000000000000000000000008152600401610ef790611b1c565b60405180910390fd5b610f0c600083836111b4565b8060026000828254610f1e91906115c6565b92505081905550806000808473ffffffffffffffffffffffffffffffffffffffff1673ffffffffffffffffffffffffffffffffffffffff168152602001908152602001600020600082825401925050819055508173ffffffffffffffffffffffffffffffffffffffff16600073ffffffffffffffffffffffffffffffffffffffff167fddf252ad1be2c89b69c2b068fc378daa952ba7f163c4a11628f55a4df523b3ef83604051610fcf919061138e565b60405180910390a3610fe3600083836111b9565b5050565b600073ffffffffffffffffffffffffffffffffffffffff168273ffffffffffffffffffffffffffffffffffffffff1603611056576040517f08c379a000000000000000000000000000000000000000000000000000000000815260040161104d90611bae565b60405180910390fd5b611062826000836111b4565b60008060008473ffffffffffffffffffffffffffffffffffffffff1673ffffffffffffffffffffffffffffffffffffffff168152602001908152602001600020549050818110156110e8576040517f08c379a00000000000000000000000000000000000000000000000000000000081526004016110df90611c40565b60405180910390fd5b8181036000808573ffffffffffffffffffffffffffffffffffffffff1673ffffffffffffffffffffffffffffffffffffffff1681526020019081526020016000208190555081600260008282540392505081905550600073ffffffffffffffffffffffffffffffffffffffff168373ffffffffffffffffffffffffffffffffffffffff167fddf252ad1be2c89b69c2b068fc378daa952ba7f163c4a11628f55a4df523b3ef8460405161119b919061138e565b60405180910390a36111af836000846111b9565b505050565b505050565b505050565b600081519050919050565b600082825260208201905092915050565b60005b838110156111f85780820151818401526020810190506111dd565b60008484015250505050565b6000601f19601f8301169050919050565b6000611220826111be565b61122a81856111c9565b935061123a8185602086016111da565b61124381611204565b840191505092915050565b600060208201905081810360008301526112688184611215565b905092915050565b600080fd5b600073ffffffffffffffffffffffffffffffffffffffff82169050919050565b60006112a082611275565b9050919050565b6112b081611295565b81146112bb57600080fd5b50565b6000813590506112cd816112a7565b92915050565b6000819050919050565b6112e6816112d3565b81146112f157600080fd5b50565b600081359050611303816112dd565b92915050565b600080604083850312156113205761131f611270565b5b600061132e858286016112be565b925050602061133f858286016112f4565b9150509250929050565b60008115159050919050565b61135e81611349565b82525050565b60006020820190506113796000830184611355565b92915050565b611388816112d3565b82525050565b60006020820190506113a3600083018461137f565b92915050565b6000806000606084860312156113c2576113c1611270565b5b60006113d0868287016112be565b93505060206113e1868287016112be565b92505060406113f2868287016112f4565b9150509250925092565b600060ff82169050919050565b611412816113fc565b82525050565b600060208201905061142d6000830184611409565b92915050565b60006020828403121561144957611448611270565b5b6000611457848285016112f4565b91505092915050565b60006020828403121561147657611475611270565b5b6000611484848285016112be565b91505092915050565b61149681611295565b82525050565b60006020820190506114b1600083018461148d565b92915050565b600080604083850312156114ce576114cd611270565b5b60006114dc858286016112f4565b92505060206114ed858286016112be565b9150509250929050565b6000806040838503121561150e5761150d611270565b5b600061151c858286016112be565b925050602061152d858286016112be565b9150509250929050565b7f4e487b7100000000000000000000000000000000000000000000000000000000600052602260045260246000fd5b6000600282049050600182168061157e57607f821691505b60208210810361159157611590611537565b5b50919050565b7f4e487b7100000000000000000000000000000000000000000000000000000000600052601160045260246000fd5b60006115d1826112d3565b91506115dc836112d3565b92508282019050808211156115f4576115f3611597565b5b92915050565b7f45524332303a2064656372656173656420616c6c6f77616e63652062656c6f7760008201527f207a65726f000000000000000000000000000000000000000000000000000000602082015250565b60006116566025836111c9565b9150611661826115fa565b604082019050919050565b6000602082019050818103600083015261168581611649565b9050919050565b7f4f776e61626c653a206e6577206f776e657220697320746865207a65726f206160008201527f6464726573730000000000000000000000000000000000000000000000000000602082015250565b60006116e86026836111c9565b91506116f38261168c565b604082019050919050565b60006020820190508181036000830152611717816116db565b9050919050565b7f45524332303a20617070726f76652066726f6d20746865207a65726f2061646460008201527f7265737300000000000000000000000000000000000000000000000000000000602082015250565b600061177a6024836111c9565b91506117858261171e565b604082019050919050565b600060208201905081810360008301526117a98161176d565b9050919050565b7f45524332303a20617070726f766520746f20746865207a65726f20616464726560008201527f7373000000000000000000000000000000000000000000000000000000000000602082015250565b600061180c6022836111c9565b9150611817826117b0565b604082019050919050565b6000602082019050818103600083015261183b816117ff565b9050919050565b7f45524332303a20696e73756666696369656e7420616c6c6f77616e6365000000600082015250565b6000611878601d836111c9565b915061188382611842565b602082019050919050565b600060208201905081810360008301526118a78161186b565b9050919050565b7f45524332303a207472616e736665722066726f6d20746865207a65726f20616460008201527f6472657373000000000000000000000000000000000000000000000000000000602082015250565b600061190a6025836111c9565b9150611915826118ae565b604082019050919050565b60006020820190508181036000830152611939816118fd565b9050919050565b7f45524332303a207472616e7366657220746f20746865207a65726f206164647260008201527f6573730000000000000000000000000000000000000000000000000000000000602082015250565b600061199c6023836111c9565b91506119a782611940565b604082019050919050565b600060208201905081810360008301526119cb8161198f565b9050919050565b7f45524332303a207472616e7366657220616d6f756e742065786365656473206260008201527f616c616e63650000000000000000000000000000000000000000000000000000602082015250565b6000611a2e6026836111c9565b9150611a39826119d2565b604082019050919050565b60006020820190508181036000830152611a5d81611a21565b9050919050565b7f4f776e61626c653a2063616c6c6572206973206e6f7420746865206f776e6572600082015250565b6000611a9a6020836111c9565b9150611aa582611a64565b602082019050919050565b60006020820190508181036000830152611ac981611a8d565b9050919050565b7f45524332303a206d696e7420746f20746865207a65726f206164647265737300600082015250565b6000611b06601f836111c9565b9150611b1182611ad0565b602082019050919050565b60006020820190508181036000830152611b3581611af9565b9050919050565b7f45524332303a206275726e2066726f6d20746865207a65726f2061646472657360008201527f7300000000000000000000000000000000000000000000000000000000000000602082015250565b6000611b986021836111c9565b9150611ba382611b3c565b604082019050919050565b60006020820190508181036000830152611bc781611b8b565b9050919050565b7f45524332303a206275726e20616d6f756e7420657863656564732062616c616e60008201527f6365000000000000000000000000000000000000000000000000000000000000602082015250565b6000611c2a6022836111c9565b9150611c3582611bce565b604082019050919050565b60006020820190508181036000830152611c5981611c1d565b905091905056fea26469706673582212201d07c1276fc7c65e0fa99a4a71f0b30c85ba315194c0ed22e4fa84cc219cc2ab64736f6c63430008130033",
  "devdoc": {
    "events": {
      "Approval(address,address,uint256)": {
        "details": "Emitted when the allowance of a `spender` for an `owner` is set by a call to {approve}. `value` is the new allowance."
      },
      "Transfer(address,address,uint256)": {
        "details": "Emitted when `value` tokens are moved from one account (`from`) to another (`to`). Note that `value` may be zero."
      }
    },
    "kind": "dev",
    "methods": {
      "allowance(address,address)": {
        "details": "See {IERC20-allowance}."
      },
      "approve(address,uint256)": {
        "details": "See {IERC20-approve}. NOTE: If `amount` is the maximum `uint256`, the allowance is not updated on `transferFrom`. This is semantically equivalent to an infinite approval. Requirements: - `spender` cannot be the zero address."
      },
      "balanceOf(address)": {
        "details": "See {IERC20-balanceOf}."
      },
      "decimals()": {
        "details": "Returns the number of decimals used to get its user representation. For example, if `decimals` equals `2`, a balance of `505` tokens should be displayed to a user as `5.05` (`505 / 10 ** 2`). Tokens usually opt for a value of 18, imitating the relationship between Ether and Wei. This is the default value returned by this function, unless it's overridden. NOTE: This information is only used for _display_ purposes: it in no way affects any of the arithmetic of the contract, including {IERC20-balanceOf} and {IERC20-transfer}."
      },
      "decreaseAllowance(address,uint256)": {
        "details": "Atomically decreases the allowance granted to `spender` by the caller. This is an alternative to {approve} that can be used as a mitigation for problems described in {IERC20-approve}. Emits an {Approval} event indicating the updated allowance. Requirements: - `spender` cannot be the zero address. - `spender` must have allowance for the caller of at least `subtractedValue`."
      },
      "increaseAllowance(address,uint256)": {
        "details": "Atomically increases the allowance granted to `spender` by the caller. This is an alternative to {approve} that can be used as a mitigation for problems described in {IERC20-approve}. Emits an {Approval} event indicating the updated allowance. Requirements: - `spender` cannot be the zero address."
      },
      "name()": {
        "details": "Returns the name of the token."
      },
      "owner()": {
        "details": "Returns the address of the current owner."
      },
      "renounceOwnership()": {
        "details": "Leaves the contract without owner. It will not be possible to call `onlyOwner` functions. Can only be called by the current owner. NOTE: Renouncing ownership will leave the contract without an owner, thereby disabling any functionality that is only available to the owner."
      },
      "symbol()": {
        "details": "Returns the symbol of the token, usually a shorter version of the name."
      },
      "totalSupply()": {
        "details": "See {IERC20-totalSupply}."
      },
      "transfer(address,uint256)": {
        "details": "See {IERC20-transfer}. Requirements: - `to` cannot be the zero address. - the caller must have a balance of at least `amount`."
      },
      "transferFrom(address,address,uint256)": {
        "details": "See {IERC20-transferFrom}. Emits an {Approval} event indicating the updated allowance. This is not required by the EIP. See the note at the beginning of {ERC20}. NOTE: Does not update the allowance if the current allowance is the maximum `uint256`. Requirements: - `from` and `to` cannot be the zero address. - `from` must have a balance of at least `amount`. - the caller must have allowance for ``from``'s tokens of at least `amount`."
      },
      "transferOwnership(address)": {
        "details": "Transfers ownership of the contract to a new account (`newOwner`). Can only be called by the current owner."
      }
    },
    "version": 1
  },
  "userdoc": {
    "kind": "user",
    "methods": {},
    "version": 1
  },
  "storageLayout": {
    "storage": [
      {
        "astId": 128,
        "contract": "contracts/RewardToken.sol:RewardToken",
        "label": "_balances",
        "offset": 0,
        "slot": "0",
        "type": "t_mapping(t_address,t_uint256)"
      },
      {
        "astId": 134,
        "contract": "contracts/RewardToken.sol:RewardToken",
        "label": "_allowances",
        "offset": 0,
        "slot": "1",
        "type": "t_mapping(t_address,t_mapping(t_address,t_uint256))"
      },
      {
        "astId": 136,
        "contract": "contracts/RewardToken.sol:RewardToken",
        "label": "_totalSupply",
        "offset": 0,
        "slot": "2",
        "type": "t_uint256"
      },
      {
        "astId": 138,
        "contract": "contracts/RewardToken.sol:RewardToken",
        "label": "_name",
        "offset": 0,
        "slot": "3",
        "type": "t_string_storage"
      },
      {
        "astId": 140,
        "contract": "contracts/RewardToken.sol:RewardToken",
        "label": "_symbol",
        "offset": 0,
        "slot": "4",
        "type": "t_string_storage"
      },
      {
        "astId": 7,
        "contract": "contracts/RewardToken.sol:RewardToken",
        "label": "_owner",
        "offset": 0,
        "slot": "5",
        "type": "t_address"
      },
      {
        "astId": 1739,
        "contract": "contracts/RewardToken.sol:RewardToken",
        "label": "maxSupply",
        "offset": 0,
        "slot": "6",
        "type": "t_uint256"
      }
    ],
    "types": {
      "t_address": {
        "encoding": "inplace",
        "label": "address",
        "numberOfBytes": "20"
      },
      "t_mapping(t_address,t_mapping(t_address,t_uint256))": {
        "encoding": "mapping",
        "key": "t_address",
        "label": "mapping(address => mapping(address => uint256))",
        "numberOfBytes": "32",
        "value": "t_mapping(t_address,t_uint256)"
      },
      "t_mapping(t_address,t_uint256)": {
        "encoding": "mapping",
        "key": "t_address",
        "label": "mapping(address => uint256)",
        "numberOfBytes": "32",
        "value": "t_uint256"
      },
      "t_string_storage": {
        "encoding": "bytes",
        "label": "string",
        "numberOfBytes": "32"
      },
      "t_uint256": {
        "encoding": "inplace",
        "label": "uint256",
        "numberOfBytes": "32"
      }
    }
  }
}